:100000000C945E000C9486000C9486000C94860080
:100010000C9486000C9486000C9486000C94860048
:100020000C9486000C9486000C9486000C940807AF
:100030000C9486000C9486000C9486000C94860028
:100040000C9470050C9486000C9444030C94760375
:100050000C9486000C9486000C9486000C94860008
:100060000C9486000C948600000000080002010039
:100070000003040700000000000000000102040863
:100080001020408001020408102001020408102002
:10009000040404040404040402020202020203032E
:1000A0000303030300000000250028002B000000CC
:1000B0000000240027002A001502A60311241FBEF9
:1000C000CFEFD8E0DEBFCDBF11E0A0E0B1E0E0E5CA
:1000D000FAE102C005900D92A433B107D9F722E0EE
:1000E000A4E3B1E001C01D92A830B207E1F710E02F
:1000F000CEE5D0E004C02197FE010E94E40BCC3590
:10010000D107C9F70E9406020C94260D0C9400003A
:10011000EF92FF920F931F93CF93DF9300D0CDB751
:10012000DEB77C01FC01628383E090E02A8349838F
:100130000E946E058C010E94C907F701118300839C
:10014000628170E0C8010E946708F701168215827B
:10015000498143832A81248361E0842F0E949C0685
:1001600061E0F70184810F900F90DF91CF911F9193
:100170000F91FF90EF900C949C06CF93DF93EC01CE
:1001800060E08B810E94D80660E08C810E94D806D6
:1001900064E170E080E090E0DF91CF910C94DF05A6
:1001A0001F93CF93DF93162FC0E0D0E09E01217004
:1001B000332781E02827622F6170812F0E94D806A3
:1001C00064E670E080E090E00E94DF052196CD318A
:1001D000D10561F7DF91CF911F910895CF93DF9300
:1001E000EC010E94BD006B81CE01DF91CF910C9498
:1001F000D0000F931F93CF93DF93FC0125813681AD
:1002000021303105C9F0EC010E94EE000EE610E04D
:10021000B801888199810E94A2086EE170E080E0B7
:1002200090E00E94DF05015011090331110581F7AB
:1002300081E090E09E838D83DF91CF911F910F919C
:100240000895CF93DF93EC010E94BD006C81CE0135
:10025000DF91CF910C94D0000F931F93CF93DF9336
:10026000FC012581368122303105C9F0EC010E9464
:10027000210104E110E0B801888199810E94A2085F
:100280006EE170E080E090E00E94DF050F5F1F4F9D
:100290000E36110581F782E090E09E838D83DF9119
:1002A000CF911F910F91089508950F931F93CF93AE
:1002B000DF93EC0126E040E855E260E070E088E37F
:1002C00091E00E94DF026BE071E088E391E00E9420
:1002D0001E0482E090E00E946E058C016EE070E0EA
:1002E0000E94B8011983088387E090E00E946E05A0
:1002F0008C0128E047E069E00E9488001B830A83A4
:10030000DF91CF911F910F910895CF92DF92EF92DD
:10031000FF92CF93DF93EC01888199810E94BC0109
:100320006B017C0122E030E0AB01BC0188E391E08D
:100330000E945C0520E030E040EA51E4C701B601CC
:100340000E94AD092A813B8187FF09C0C901DF9165
:10035000CF91FF90EF90DF90CF900C94F900C901FE
:10036000DF91CF91FF90EF90DF90CF900C942C0114
:10037000FC01718360830895CF92DF92EF92FF9228
:10038000FC0180810E945606BC01990F880B990BD5
:100390000E94550A6B017C0120E030E04AEF53E4F3
:1003A0000E94050B1816DCF020E030E040EA52E431
:1003B000C701B6010E94AD0987FD16C020E030E0FC
:1003C00040EA51E4C701B6010E9440099B01AC011B
:1003D00060E070E086E995E40E94B20909C060E03F
:1003E00070E080E291E404C060E070E080EA92E4B2
:1003F000FF90EF90DF90CF900895089584E391E00F
:100400000C94550184E391E00C9485010E941B0635
:100410000E94FD010E94FE01C7E4D2E00E94020298
:100420002097E1F30E944702F9CF84E391E00C9416
:100430005401FC01918D228D892F90E0805C9F4FAB
:10044000821B91098F7399270895FC01918D828DEC
:10045000981731F0828DE80FF11D858D90E0089599
:100460008FEF9FEF0895FC01918D828D981761F0B9
:10047000828DDF01A80FB11D5D968C91928D9F5FDB
:100480009F73928F90E008958FEF9FEF08958CE90E
:1004900093E0892B49F080E090E0892B29F00E94BD
:1004A0009C0381110C9400000895FC01848DDF01F0
:1004B000A80FB11DA35ABF4F2C91848D90E00196D7
:1004C0008F739927848FA689B7892C93A089B189C6
:1004D0008C9180648C93938D848D981306C00288D0
:1004E000F389E02D80818F7D80830895CF93DF9302
:1004F000EC01888D8823C9F0EA89FB89808185FD1C
:1005000005C0A889B9898C9186FD0FC00FB607FC7C
:10051000F5CF808185FFF2CFA889B9898C9185FFBD
:10052000EDCFCE010E945502E7CFDF91CF91089524
:10053000EF92FF920F931F93CF93DF93EC0181E033
:10054000888F9B8D8C8D981305C0E889F9898081EF
:1005500085FD24C0F62E0B8D10E00F5F1F4F0F732B
:100560001127E02E8C8DE8120CC00FB607FCFACFD5
:10057000E889F989808185FFF5CFCE010E94550277
:10058000F1CF8B8DFE01E80FF11DE35AFF4FF08292
:100590000B8FEA89FB898081806207C0EE89FF8921
:1005A0006083E889F98980818064808381E090E0BC
:1005B000DF91CF911F910F91FF90EF900895CF920F
:1005C000DF92EF92FF921F93CF93DF93EC016A01CA
:1005D0007B01122FE889F98982E080834115514E11
:1005E00061057105B1F060E079E08DE390E0A7016D
:1005F00096010E94980BDA01C9010197A109B1097E
:10060000B695A79597958795AC01411580E1580758
:10061000A8F0E889F989108260E874E88EE190E03A
:10062000A70196010E94980BBA01A90141505109F6
:10063000610971097695679557954795EC85FD8514
:100640005083EE85FF854083188EEC89FD891083E9
:10065000EA89FB89808180618083EA89FB898081C6
:1006600088608083EA89FB89808180688083EA8949
:10067000FB8980818F7D8083DF91CF911F91FF90D7
:10068000EF90DF90CF9008951F920F920FB60F92C8
:1006900011242F938F939F93EF93FF93E091480141
:1006A000F09149018081E0914E01F0914F0182FD6E
:1006B00012C09081809151018F5F8F732091520100
:1006C000821751F0E0915101F0E0E85CFE4F958F08
:1006D0008093510101C08081FF91EF919F918F9193
:1006E0002F910F900FBE0F901F9018951F920F9291
:1006F0000FB60F9211242F933F934F935F936F93F5
:100700007F938F939F93AF93BF93EF93FF9388E370
:1007100091E00E945502FF91EF91BF91AF919F919F
:100720008F917F916F915F914F913F912F910F909A
:100730000FBE0F901F90189588E391E00E94190258
:1007400021E0892B09F420E0822F0895E8E3F1E00D
:100750001382128288EE93E0A0E0B0E08483958358
:10076000A683B78387E191E09183808385EC90E055
:100770009587848784EC90E09787868780EC90E06B
:10078000918B808B81EC90E0938B828B82EC90E05C
:10079000958B848B86EC90E0978B868B118E128ED6
:1007A000138E148E0895CF92DF92EF92FF920F93E3
:1007B0001F93CF93DF936C017A018B01C0E0D0E0EF
:1007C000CE15DF0589F0D8016D918D01D601ED912F
:1007D000FC910190F081E02DC6010995892B11F45F
:1007E0007E0102C02196ECCFC701DF91CF911F910E
:1007F0000F91FF90EF90DF90CF90089561157105F4
:1008000079F0FB0101900020E9F73197AF01461B19
:10081000570BDC01ED91FC910280F381E02D0994EE
:1008200080E090E00895DC01ED91FC910190F08171
:10083000E02D099463E271E00C94FE030F931F9383
:10084000CF93DF93EC010E94FE038C01CE010E9446
:100850001A04800F911FDF91CF911F910F9108957E
:100860004F925F926F927F92EF92FF920F931F933E
:10087000CF93DF93CDB7DEB7A1970FB6F894DEBF65
:100880000FBECDBF7C01FA01CB0119A2223008F4C2
:100890002AE08E010F5D1F4F422E512C612C712CCE
:1008A000BF01A30192010E94980BF901CA010150F6
:1008B00011096A3014F4605D01C0695CD8016C9361
:1008C000232B242B252B61F7B801C7010E94FE03BF
:1008D000A1960FB6F894DEBF0FBECDBFDF91CF91CA
:1008E0001F910F91FF90EF907F906F905F904F90CE
:1008F00008954F925F926F927F928F929F92AF92E4
:10090000BF92CF92DF92EF92FF92CF93DF93EC01F1
:100910006A017B01B22E9A01AB01C701B6010E94A8
:10092000770B882319F066E271E027C026013701B2
:10093000E89477F82FEF3FEF4FE75FE7C301B2018D
:100940000E94770B81110DC02FEF3FEF4FE75FE75C
:10095000C301B2010E94AD0918161CF46AE271E0ED
:100960000CC02FEF3FEF4FE75FE4C701B6010E94D5
:10097000050B18169CF46EE271E0CE01DF91CF9169
:10098000FF90EF90DF90CF90BF90AF909F908F90AF
:100990007F906F905F904F900C94FE032FEF3FEF8E
:1009A0004FE75FECC701B6010E94AD0987FDE3CFB9
:1009B00020E030E0A901C701B6010E94AD0987FF20
:1009C0000AC06DE2CE010E9413044C01F7FAF094C4
:1009D000F7F8F09402C0812C912CA12C60E070E01B
:1009E00080E09FE3AB1441F020E030E040E251E4CE
:1009F0000E94B209A394F6CF9B01AC01C701B601D6
:100A00000E9441092B013C010E94240A6B017C01D8
:100A10000E94530A9B01AC01C301B2010E9440092C
:100A20002B013C012AE0B701A601CE010E9430044F
:100A30007C01E80CF91CBB2039F062E371E0CE01C7
:100A40000E94FE03E80EF91EDB2CDD2029F120E0D8
:100A500030E040E251E4C301B2010E940A0B2B01D5
:100A60003C010E94240A4B01A12CB12C2AE0B501C3
:100A7000A401CE010E943004E80EF91EC501B401A4
:100A80000E94530A9B01AC01C301B2010E944009BC
:100A90002B013C01DA94D9CFC701DF91CF91FF90B0
:100AA000EF90DF90CF90BF90AF909F908F907F900E
:100AB0006F905F904F9008950F931F93CF93DF93A4
:100AC000EC010E9479048C01CE010E941A04800F6F
:100AD000911FDF91CF911F910F9108950C94F90B05
:100AE0001F920F920FB60F9211242F933F938F9363
:100AF0009F93AF93BF938091D6019091D701A0911E
:100B0000D801B091D9013091D50123E0230F2D37C1
:100B100020F40196A11DB11D05C026E8230F029601
:100B2000A11DB11D2093D5018093D6019093D701CB
:100B3000A093D801B093D9018091DA019091DB01A3
:100B4000A091DC01B091DD010196A11DB11D809342
:100B5000DA019093DB01A093DC01B093DD01BF913A
:100B6000AF919F918F913F912F910F900FBE0F905A
:100B70001F9018953FB7F8948091DA019091DB01AE
:100B8000A091DC01B091DD0126B5A89B05C02F3FE7
:100B900019F00196A11DB11D3FBFBA2FA92F982FA3
:100BA0008827820F911DA11DB11DBC01CD0142E01E
:100BB000660F771F881F991F4A95D1F708958F9266
:100BC0009F92AF92BF92CF92DF92EF92FF926B0112
:100BD0007C010E94BA054B015C01C114D104E104FF
:100BE000F10401F10E943F090E94BA05DC01CB012A
:100BF00088199909AA09BB09883E9340A105B10546
:100C000060F321E0C21AD108E108F10888EE880EED
:100C100083E0981EA11CB11CC114D104E104F104AD
:100C200019F7DBCFFF90EF90DF90CF90BF90AF90A0
:100C30009F908F900895789484B5826084BD84B528
:100C4000816084BD85B5826085BD85B5816085BDC7
:100C5000EEE6F0E0808181608083E1E8F0E01082E0
:100C6000808182608083808181608083E0E8F0E021
:100C7000808181608083E1EBF0E08081846080830B
:100C8000E0EBF0E0808181608083EAE7F0E0808142
:100C900084608083808182608083808181608083A2
:100CA0008081806880831092C10008958E3008F0A2
:100CB0008E50877020910A0190E4299F90011124A1
:100CC000822B80937C0080917A00806480937A00EC
:100CD00080917A0086FDFCCF809178002091790088
:100CE00090E0922B0895833081F028F4813099F0C0
:100CF0008230A1F008958730A9F08830B9F08430AF
:100D0000D1F4809180008F7D03C0809180008F7727
:100D100080938000089584B58F7702C084B58F7D5D
:100D200084BD08958091B0008F7703C08091B0009A
:100D30008F7D8093B0000895CF93DF9390E0FC0106
:100D4000E458FF4F2491FC01E057FF4F8491882322
:100D500061F190E0880F991FFC01E255FF4FC591AA
:100D6000D491FC01EC55FF4FA591B491611109C0DC
:100D70009FB7F8948881209582238883EC912E2355
:100D80000BC0623061F49FB7F8943881822F809550
:100D900083238883EC912E2B2C939FBF06C08FB7A3
:100DA000F894E8812E2B28838FBFDF91CF9108958F
:100DB0001F93CF93DF93282F30E0F901E859FF4FBD
:100DC0008491F901E458FF4FD491F901E057FF4FA6
:100DD000C491CC23C9F0162F81110E947306EC2F09
:100DE000F0E0EE0FFF1FEC55FF4FA591B4918FB7C8
:100DF000F894111105C09C91ED2FE095E92302C0F4
:100E0000EC91ED2BEC938FBFDF91CF911F91089563
:100E10001F920F920FB60F9211242F933F934F936F
:100E20005F936F937F938F939F93AF93BF93EF9352
:100E3000FF938091DF0187FF05C01092850010921B
:100E400084001BC02091DF01022E000C330B809127
:100E5000DE0190E02817390784F48091DF01082E25
:100E6000000C990BFC01EE0FFF1F8E0F9F1FFC0162
:100E7000E052FE4F808186FD15C08091DF018F5FBB
:100E80008093DF012091DF01022E000C330B809153
:100E9000DE0190E028173907C4F48091DF018C301F
:100EA00064F113C08091DF01082E000C990BFC0146
:100EB000EE0FFF1F8E0F9F1FFC01E052FE4F80813F
:100EC00060E08F730E94D806D8CF80918400909103
:100ED0008500049680349C4918F480E49CE905C0A0
:100EE000809184009091850004969093890080936E
:100EF00088008FEF8093DF013BC020918400309108
:100F000085008091DF01082E000C990BFC01EE0F8B
:100F1000FF1F8E0F9F1FFC01E052FE4F81819281C7
:100F2000820F931F90938900809388008091DF0146
:100F3000082E000C990BFC01EE0FFF1F8E0F9F1F58
:100F4000FC01E052FE4F808186FF12C08091DF01DC
:100F5000082E000C990BFC01EE0FFF1F8E0F9F1F38
:100F6000FC01E052FE4F808161E08F730E94D80641
:100F7000FF91EF91BF91AF919F918F917F916F9171
:100F80005F914F913F912F910F900FBE0F901F9047
:100F90001895FC019091DE019C30A0F481E0890F4E
:100FA0008093DE019083892F90E0FC01EE0FFF1FFC
:100FB0008E0F9F1FFC01E052FE4F88EB9BE0928357
:100FC000818308958FEF80830895DF92EF92FF92DF
:100FD0000F931F93CF93DF93EC01D62E7A018901F3
:100FE00088818C3008F06AC061E08D2D0E949C06DB
:100FF0008881E82FF0E09F01220F331FE20FF31FDB
:10100000E052FE4F9D2D9F732081207CD22ED92A45
:10101000D08260E272E0AB014E195F0957FF02C057
:101020004D5F5F4F5595479555954795498340E6E8
:1010300059E09A01201B310B37FF02C02D5F3F4F53
:1010400035952795359527952A836CE00E948C0B62
:101050009CE0899FB001112440E050E09A01260FE6
:10106000371FF901EE0FFF1F2E0F3F1FF901E0524E
:10107000FE4F908196FD16C04F5F5F4F4C3051057B
:1010800069F781110FC01092800082E08093810087
:101090001092850010928400B19A80916F00826056
:1010A00080936F00E881F0E0CF01880F991FE80F6F
:1010B000F91FE052FE4F8081806480838881DF9138
:1010C000CF911F910F91FF90EF90DF90089520E650
:1010D00039E040E252E00C94E507FC0190819C303D
:1010E00080F5818128E830E0281B310987FD3395A0
:1010F000220F331F220F331F621773077CF0828188
:1011000028E532E0281B310987FD3395220F331F74
:10111000220F331F621773070CF49B012250310911
:10112000220F331F4FB7F894892F90E0FC01EE0F88
:10113000FF1F8E0F9F1FFC01E052FE4F3283218361
:101140004FBF0895AF92BF92CF92DF92EF92FF927E
:101150000F931F93CF93DF93EC01603282E0780707
:101160000CF03FC077FD06C0653B71052CF064EBC9
:1011700070E002C060E070E0898128E830E0590149
:10118000A81AB10887FDB394AA0CBB1CAA0CBB1CFF
:101190000B2C000CCC08DD08072E000C880B990BDB
:1011A0002A8108E512E0021B110927FD1395000FA3
:1011B000111F000F111F012E000C220B330B3F9348
:1011C0002F931F930F9314EBE12EF12C00E010E00E
:1011D00020E030E0A9010E94FE080F900F900F90D0
:1011E0000F90CE01DF91CF911F910F91FF90EF9063
:1011F000DF90CF90BF90AF900C946D084F925F92AC
:101200006F927F92AF92BF92CF92DF92EF92FF9256
:101210000F931F93CF93DF93CDB7DEB729013A0128
:101220009B01AC01241935094609570989899A8916
:10123000AB89BC89BC01CD016A197B098C099D0968
:101240000E947C0BA801970124193509460957090A
:101250000E94BA0BCA01B9016A0D7B1D8C1D9D1D30
:10126000DF91CF911F910F91FF90EF90DF90CF9082
:10127000BF90AF907F906F905F904F9008950895CA
:101280005058BB27AA270E9458090C94CB0A0E94E9
:10129000BD0A38F00E94C40A20F039F49F3F19F4C7
:1012A00026F40C94BA0A0EF4E095E7FB0C94B40A09
:1012B000E92F0E94DC0A58F3BA1762077307840704
:1012C000950720F079F4A6F50C94FE0A0EF4E0954B
:1012D0000B2EBA2FA02D0B01B90190010C01CA01F0
:1012E000A0011124FF27591B99F0593F50F4503E9B
:1012F00068F11A16F040A22F232F342F4427585F8D
:10130000F3CF469537952795A795F0405395C9F7A4
:101310007EF41F16BA0B620B730B840BBAF091505C
:10132000A1F0FF0FBB1F661F771F881FC2F70EC0FB
:10133000BA0F621F731F841F48F4879577956795CE
:10134000B795F7959E3F08F0B0CF9395880F08F0BA
:101350009927EE0F9795879508950E94900A08F4B3
:1013600081E008950E94C6090C94CB0A0E94C40A29
:1013700058F00E94BD0A40F029F45F3F29F00C9418
:10138000B40A51110C94FF0A0C94BA0A0E94DC0AA8
:1013900068F39923B1F3552391F3951B550BBB27A4
:1013A000AA2762177307840738F09F5F5F4F220FE9
:1013B000331F441FAA1FA9F335D00E2E3AF0E0E8E0
:1013C00032D091505040E695001CCAF72BD0FE2F2A
:1013D00029D0660F771F881FBB1F261737074807BE
:1013E000AB07B0E809F0BB0B802DBF01FF27935876
:1013F0005F4F3AF09E3F510578F00C94B40A0C947C
:10140000FF0A5F3FE4F3983ED4F38695779567959E
:10141000B795F7959F5FC9F7880F911D96958795AA
:1014200097F90895E1E0660F771F881FBB1F6217C9
:1014300073078407BA0720F0621B730B840BBA0B87
:10144000EE1F88F7E09508950E94E40A88F09F5700
:1014500098F0B92F9927B751B0F0E1F0660F771FD8
:10146000881F991F1AF0BA95C9F714C0B13091F0CE
:101470000E94FE0AB1E008950C94FE0A672F782FAF
:101480008827B85F39F0B93FCCF386957795679593
:10149000B395D9F73EF490958095709561957F4FFF
:1014A0008F4F9F4F0895E89409C097FB3EF49095A5
:1014B0008095709561957F4F8F4F9F4F9923A9F02D
:1014C000F92F96E9BB279395F695879577956795BC
:1014D000B795F111F8CFFAF4BB0F11F460FF1BC000
:1014E0006F5F7F4F8F4F9F4F16C0882311F096E993
:1014F00011C0772321F09EE8872F762F05C0662341
:1015000071F096E8862F70E060E02AF09A95660FF9
:10151000771F881FDAF7880F9695879597F90895B2
:10152000990F0008550FAA0BE0E8FEEF16161706F4
:10153000E807F907C0F012161306E407F50798F05C
:10154000621B730B840B950B39F40A2661F0232B75
:10155000242B252B21F408950A2609F4A140A695F1
:101560008FEF811D811D089597F99F6780E870E0D6
:1015700060E008959FEF80EC089500240A94161609
:10158000170618060906089500240A941216130671
:10159000140605060895092E0394000C11F48823FF
:1015A00052F0BB0F40F4BF2B11F460FF04C06F5F1B
:1015B0007F4F8F4F9F4F089557FD9058440F551FF1
:1015C00059F05F3F71F04795880F97FB991F61F0C5
:1015D0009F3F79F087950895121613061406551F3C
:1015E000F2CF4695F1DF08C0161617061806991FA8
:1015F000F1CF86957105610508940895E894BB279D
:1016000066277727CB0197F908950E94900A08F47E
:101610008FEF08950E941D0B0C94CB0A0E94BD0A07
:1016200038F00E94C40A20F0952311F00C94B40AFB
:101630000C94BA0A11240C94FF0A0E94DC0A70F37D
:10164000959FC1F3950F50E0551F629FF001729F67
:10165000BB27F00DB11D639FAA27F00DB11DAA1F76
:10166000649F6627B00DA11D661F829F2227B00DC3
:10167000A11D621F739FB00DA11D621F839FA00D4E
:10168000611D221F749F3327A00D611D231F849F9E
:10169000600D211D822F762F6A2F11249F575040F5
:1016A0009AF0F1F088234AF0EE0FFF1FBB1F661F70
:1016B000771F881F91505040A9F79E3F510580F039
:1016C0000C94B40A0C94FF0A5F3FE4F3983ED4F301
:1016D000869577956795B795F795E7959F5FC1F7DD
:1016E000FE2B880F911D9695879597F908950E9476
:1016F000900A880B990B0895DB018F939F930E94AA
:10170000D90BBF91AF91A29F800D911DA39F900D0A
:10171000B29F900D11240895991B79E004C0991F80
:10172000961708F0961B881F7A95C9F7809508953B
:10173000A1E21A2EAA1BBB1BFD010DC0AA1FBB1FD5
:10174000EE1FFF1FA217B307E407F50720F0A21B47
:10175000B30BE40BF50B661F771F881F991F1A94B4
:1017600069F760957095809590959B01AC01BD01DE
:10177000CF010895052E97FB1EF400940E94D10B13
:1017800057FD07D00E94980B07FC03D04EF40C9431
:10179000D10B50954095309521953F4F4F4F5F4F5E
:1017A000089590958095709561957F4F8F4F9F4FCD
:1017B00008950E94EA0BA59F900DB49F900DA49FE1
:1017C000800D911D11240895EE0FFF1F0590F491D7
:1017D000E02D0994A29FB001B39FC001A39F700D9B
:1017E000811D1124911DB29F700D811D1124911D29
:1017F0000895CF93DF938230910510F482E090E05A
:10180000E0910602F091070220E030E0C0E0D0E075
:10181000309711F14081518148175907C0F048179E
:10182000590761F482819381209719F09B838A8301
:101830002BC0909307028093060226C02115310524
:1018400019F04217530718F49A01BE01DF01EF01A6
:101850000280F381E02DDCCF2115310509F1281B31
:10186000390B2430310590F412968D919C91139789
:101870006115710521F0FB019383828304C090936D
:10188000070280930602FD01329644C0FD01E20F7B
:10189000F31F81939193225031092D933C933AC0C9
:1018A0002091040230910502232B41F42091020182
:1018B000309103013093050220930402209100012E
:1018C000309101012115310541F42DB73EB740910A
:1018D000040150910501241B350BE0910402F091A5
:1018E0000502E217F307A0F42E1B3F0B2817390758
:1018F00078F0AC014E5F5F4F2417350748F04E0F6C
:101900005F1F50930502409304028193919302C09C
:10191000E0E0F0E0CF01DF91CF9108950F931F93A6
:10192000CF93DF93009709F48CC0FC0132971382A8
:10193000128200910602109107020115110581F42F
:1019400020813181820F931F209104023091050282
:101950002817390779F5F0930502E093040271C066
:10196000D80140E050E0AE17BF0750F412962D9119
:101970003C911397AD012115310509F1D901F3CF40
:101980009D01DA013383228360817181860F971F65
:101990008217930769F4EC0128813981260F371FDC
:1019A0002E5F3F4F318320838A819B819383828383
:1019B000452B29F4F0930702E093060242C01396E8
:1019C000FC93EE931297ED01499159919E01240FDA
:1019D000351FE217F30771F480819181840F951F01
:1019E000029611969C938E938281938113969C9379
:1019F0008E931297E0E0F0E0D80112968D919C91C1
:101A00001397009719F0F8018C01F6CF8D919C91F6
:101A100098012E5F3F4F820F931F20910402309157
:101A200005022817390769F4309729F41092070244
:101A30001092060202C013821282109305020093D4
:101A40000402DF91CF911F910F910895F894FFCF79
:101A50000000080280000100000001526561647905
:101A6000212100000000009802D30319023302254F
:101A70000276020D0A006E616E00696E66006F7676
:041A800066002E00CE
:00000001FF
